:020000040800F2
:10000000780A002091100008FD050008FF0500088F
:1000100003060008070600080B06000800000000A1
:100020000000000000000000000000000F060008B3
:10003000110600080000000013060008150600085D
:10004000AB100008AB100008AB100008AB100008A4
:10005000AB100008AB100008550400087D04000830
:10006000A7040008AB100008AB100008AB10000894
:10007000AB100008AB100008AB100008AB10000874
:10008000AB100008AB100008AB100008AB10000864
:10009000AB100008AB100008AB100008AB10000854
:1000A000AB100008AB100008AB100008AB10000844
:1000B000AB100008AB100008AB100008AB10000834
:1000C000AB100008AB100008AB100008AB10000824
:1000D000AB100008AB100008AB100008AB10000814
:1000E000AB100008AB100008AB10000800F002F8DD
:1000F00000F05FF80AA090E8000C82448344AAF163
:100100000107DA4501D100F054F8AFF2090EBAE860
:100110000F0013F0010F18BFFB1A43F0010318473B
:10012000282A0000482A00000A444FF0000C10F86A
:10013000013B13F0070408BF10F8014B1D1108BF65
:1001400010F8015B641E05D010F8016B641E01F805
:10015000016BF9D113F0080F1EBF10F8014BAD1C55
:100160000C1B09D16D1E58BF01F801CBFAD505E073
:1001700014F8016B01F8016B6D1EF9D59142D6D3CD
:10018000704700000023002400250026103A28BFF5
:1001900078C1FBD8520728BF30C148BF0B607047F9
:1001A000642901F03785002070471FB51FBD10B5C9
:1001B00010BD01F0E6FD1146FFF7F7FF00F08AF9E8
:1001C00001F004FE03B4FFF7F2FF03BC01F066FC8C
:1001D000F0490988B1F57A6F06DA0021EE4B03EB9E
:1001E0008002C2F8801130E0EA490988B1F5FA5F6F
:1001F00006DA0121E84B03EB8002C2F8801124E00B
:10020000E449098842F6E062914206DA0021E24BB5
:1002100003EB8002C2F8801117E0DE490988B1F5CE
:100220007A5F06DA0121DC4B03EB8002C2F8801111
:100230000BE0D849098844F62062914205DA002192
:10024000D54B03EB8002C2F88011704708B5D34844
:100250000068D2494968884200D108BDCF4840684B
:10026000CE4908600846406830B1012815D0022800
:1002700024D0032844D132E0C9480623472205216F
:100280000090402000F0E7FDC64804230722032128
:100290000090002000F0DFFD33E0C1480423072276
:1002A00003210090002000F0D6FDBE480423472221
:1002B00003210090402000F0CEFD22E0B848042346
:1002C000472203210090402000F0C5FDB5480623D9
:1002D000072205210090002000F0BDFD11E0B0488C
:1002E0000623072205210090002000F0B4FDAD4850
:1002F0000623472205210090402000F0ACFD00E0DD
:1003000000BF00BF00BFA8E7F8B5002211461046A5
:1003100000F070FD01220021122000F06BFD02228E
:100320000021242000F066FD03220021362000F089
:1003300061FD04220021482000F05CFD052200211F
:100340005A2000F057FD062200216C2000F052FDDB
:10035000954800F0FEFA01287BD19448027894A1D8
:10036000954801F00FFC1023934A0221082000F069
:100370001EFD8E48427891A18F4801F003FC1023A6
:100380008D4A0221482000F012FD884882788DA114
:10039000894801F0F7FB1023874A0421082000F068
:1003A00006FD8248C27889A1834801F0EBFB102347
:1003B000814A0421482000F0FAFC864808230F22D5
:1003C00006210090002000F046FD774840780A2181
:1003D00090FBF1F201FB12047348007890FBF1F2FC
:1003E00001FB12057048007890FBF1F62B4632466F
:1003F00079A17148009401F0C5FB10236E4A0621D3
:10040000122000F0D4FC77480823502206210090E7
:10041000402000F020FD6448C0780A2190FBF1F2F2
:1004200001FB12046048807890FBF1F201FB120599
:100430005D48807890FBF1F62B4632466AA15E4813
:10044000009401F09FFB10235B4A0621502000F02E
:10045000AEFCF8BD10B5142001F0F3FA6548006851
:1004600040B94E4840685149085C401E4B494968B4
:100470004E4A5054012000F01EFF10BD10B514204C
:1004800001F0DFFA5B48001D006840B9434840684E
:100490004649085C401C41494968444A505402207E
:1004A00000F009FF10BD10B5142001F0CAFA514840
:1004B0000830006850B939494968481CC11700EB39
:1004C00091718910A0EB8101344A5160042000F041
:1004D000F2FE10BD0024002501F076FA00F0BEF90E
:1004E0004FF4A06000F0F4FD00F086F900F07CFD10
:1004F00000F0ECFC00F081FB142001F0A2FAFFF701
:1005000003FF46E023480088401C22490880084633
:10051000008844F62061884204D1FFF7F5FE0020F0
:100520001C490880FFF792FE01251F4880781F496B
:100530008978884205DB1C4880781C49C978884244
:1005400003DD0120FFF744FE03E001202A49086093
:10055000002501241448007814490978884205DBF5
:100560001148007811494978884203DD0020FFF7DF
:100570002FFE04E0002401201F49091F086004B970
:100580001DB10420FFF724FE03E001201A490C31BD
:100590000860B7E70C0000200080214264000020C2
:1005A0005B000020130000200E0000200800002047
:1005B0004C5F483A2564000000000020485F483A3C
:1005C000256400004C5F543A25640000485F543AAB
:1005D000256400001A0000203A256425642E256455
:1005E000202000003A0000203A256425642E25646E
:1005F000000000000001214284812142704700BFB9
:10060000FEE700BFFEE700BFFEE700BFFEE7704762
:1006100070477047704700000CB5002001900090B3
:100620006C48006840F480306A49086000BF69483F
:10063000006800F4003000900198401C0190009880
:1006400018B90198B0F5A06FF1D16248006800F4C4
:10065000003010B10120009001E0002000900098CF
:10066000012843D15C48006840F010005A490860F6
:100670000846006820F0030008600846006840F063
:100680000200086053484068524948600846406884
:1006900048600846406840F480604860084640680A
:1006A00020F47C1048600846406840F4E810486038
:1006B0000846006840F08070086000BF4548006848
:1006C00000F000700028F9D04248406820F0030094
:1006D000404948600846406840F00200486000BF5A
:1006E0003C48406800F00C000828F9D10CBD10B55A
:1006F000FFF792FF10BD10B53648006840F00100CA
:100700003449086008464068344908403149486027
:1007100008460068324908402E49086008460068CB
:1007200020F4802008600846406820F4FE004860FD
:100730004FF41F008860FFF7DAFF4FF0006029498F
:10074000086010BD10B5002100200022214B5B681D
:1007500003F00C0121B1042906D0082928D107E0B3
:10076000214B224C236027E01F4B204C236023E0C9
:10077000184B5B6803F47010164B5B6803F480320F
:10078000022303EB904022B9194B4343174C2360DB
:100790000DE0104B5B6803F4003323B1144B43436B
:1007A000124C236003E0104B4343104C236003E0E2
:1007B0000D4B0E4C236000BF00BF064B5B68C3F3BC
:1007C00003130C4CE15C094B1B68CB40074C2360C6
:1007D00010BD000000100240002002400000FFF8A1
:1007E000FFFFF6FE08ED00E000127A006C0000202A
:1007F00000093D007000002008B50121082001F02B
:100800007FF81320ADF8000010208DF803000320BE
:100810008DF802006946064800F0B6FD0321044841
:1008200000F05FFE1021024800F05BFE08BD0000F2
:10083000000C014008B50121042001F061F84FF4DB
:100840000070ADF8000010208DF8030003208DF833
:1008500002006946684800F097FD08BD10B5FFF733
:10086000E9FF4FF40071644800F03BFE10BD00BF8B
:10087000011EA0F10100FBD1704700BF4FF4AF6231
:1008800000FB02F100BF0A1EA1F10101FBD170477C
:1008900008B50121042001F033F84FF40070ADF8E1
:1008A000000048208DF8030003208DF802006946FF
:1008B000514800F069FD08BD08B50121042001F090
:1008C0001FF84FF40070ADF8000010208DF8030001
:1008D00003208DF802006946474800F055FD08BD29
:1008E00070B50024002500262FE06006040E04E009
:1008F000681CC5B20120FFF7BAFF4FF400713E48F3
:1009000000F0D5FD012801D1642DF1DB002504E0C4
:10091000681CC5B20120FFF7AAFF4FF400713648EA
:1009200000F0C5FD08B9642DF2DB1E20FFF79FFF24
:100930004FF40071304800F0BAFD012802D144F0B4
:10094000010400E000BF701CC6B2082ECDDB2046BB
:1009500070BD10B50446FFF7AFFF4FF40071264895
:1009600000F0C1FD1220FFF788FF4FF4007122480C
:1009700000F0B7FD2320FFF77AFFFFF789FF4FF460
:1009800000711D4800F093FD88BB00BF4FF400715B
:10099000194800F08CFD0028F8D000BF4FF400711A
:1009A000154800F084FD0128F8D0FFF799FF20706A
:1009B000FFF796FF6070FFF793FFA070FFF790FFBF
:1009C000E070FFF78DFF2071FFF776FF4FF40071A5
:1009D000094800F086FD207861780844A178084431
:1009E000E17808442179884202D1012010BD01E05C
:1009F0000020FBE70020F9E70008014010B54FF4A4
:100A00008051F94800F06DFD4FF40051F64800F0B8
:100A100068FD4FF40051F44800F065FD4FF480513B
:100A2000F14800F060FD10BD10B54FF48051EE4864
:100A300000F057FD4FF40051EB4800F054FD4FF427
:100A40000051E94800F04DFD10BD10B54FF4805144
:100A5000E54800F046FD4FF48051E34800F043FDC7
:100A600010BD2DE9F04105462C464FF48051DE487B
:100A700000F039FD00261CE0274607F08007802F94
:100A800004D1B901D84800F02CFD04E04FF4005126
:100A9000D54800F028FD6006040E4FF48051D2487E
:100AA00000F01FFD4FF48051CF4800F01CFD701C7A
:100AB000C6B2082EE0DBBDE8F08110B50446FFF7B2
:100AC0009DFF7820FFF7CDFFFFF7BFFF0020FFF766
:100AD000C8FFFFF7BAFF2046FFF7C3FFFFF7B5FFD8
:100AE000FFF7A2FF10BD10B50446FFF787FF78207F
:100AF000FFF7B7FFFFF7A9FF4020FFF7B2FFFFF7AF
:100B0000A4FF2046FFF7ADFFFFF79FFFFFF78CFF25
:100B100010BD70B504460D461DB1E0B2FFF7E3FF0E
:100B200002E0E0B2FFF7C9FF70BD70B506460024D1
:100B300018E004F1B0000021FFF7EBFF00210846A8
:100B4000FFF7E7FF00211020FFF7E3FF002505E096
:100B500001213046FFF7DDFF681CC5B2802DF7DBB1
:100B6000601CC4B2082CE4DB70BD06E041F66501F0
:100B700000E0491E0029FCD1401E0028F6D1704734
:100B8000014605E0002001E0421CD0B27B28FBDBDF
:100B90000A1EA1F10101F5D1704770B504460D465A
:100BA00005F1B0000021FFF7B4FF102141EA141055
:100BB0000021FFF7AEFF04F00F000021FFF7A9FFAF
:100BC00070BD10B500218D20FFF7A3FF0021142078
:100BD000FFF79FFF0021AF20FFF79BFF10BD10B56F
:100BE00000218D20FFF795FF00211020FFF791FFD6
:100BF0000021AE20FFF78DFF10BD70B5002418E076
:100C000004F1B0000021FFF784FF00210846FFF740
:100C100080FF00211020FFF77CFF002505E0012167
:100C20000020FFF776FF681CC5B2802DF7DB601C43
:100C3000C4B2082CE4DB70BD70B5002418E004F1E8
:100C4000B0000021FFF765FF00210846FFF761FFB4
:100C500000211020FFF75DFF002505E00121084677
:100C6000FFF757FF681CC5B2802DF7DB601CC4B2CC
:100C7000082CE4DB70BD2DE9F04707460E46904690
:100C8000994600250024A8F12000C5B27F2F02DD7F
:100C90000027B01CC6B2B9F1100F24D13146384636
:100CA000FFF77BFF002408E004EB05114F4A505C7E
:100CB0000121FFF72EFF601CC4B2082CF4DB701C6E
:100CC000C1B23846FFF769FF002409E004EB0511C3
:100CD0000831464A505C0121FFF71BFF601CC4B27B
:100CE000082CF3DB12E031463846FFF756FF0024AC
:100CF0000AE005EB45013E4A02EB4101085D012196
:100D0000FFF707FF601CC4B2062CF2DBBDE8F087DA
:100D100010B50246012000E050430B1EA1F1010472
:100D2000E1B2F9D110BD2DE9FF5F074691461E469D
:100D30000E9D4FF0000A002435E0301B401EC1B26A
:100D40000A20FFF7E5FFB9FBF0F00A21B0FBF1F252
:100D500001FB1208BAF1000F14D1701EA04211DD80
:100D6000B8F1000F0CD1AB4605EBDB71491001FB6C
:100D70000471C8B22B4620220199FFF77CFF10E0D6
:100D80004FF0010AAB4605EBDB71491001FB047122
:100D9000C8B208F13001CAB22B460199FFF76BFFC8
:100DA00000BF601CC4B2B442C7DBBDE8FF9F2DE9A1
:100DB000F04104460F461546984600260FE0AA5D0E
:100DC000434639462046FFF756FF04F10800C4B2F7
:100DD000782C02DD0024B81CC7B2701CC6B2A85D16
:100DE0000028ECD1BDE8F081000C01405625000838
:100DF0002E2300082DE9F04180460E4615460027B7
:100E000031464046FFF7C9FE00240AE0744A02EB6F
:100E10008511085D0121FFF77CFE781CC7B2601CBC
:100E2000C4B2102CF2DB701CC1B24046FFF7B5FE15
:100E300000240CE06900491C694A02EB4111085D7D
:100E40000121FFF766FE781CC7B2601CC4B2102CEB
:100E5000F0DBBDE8F0812DE9F05F06460F469046D5
:100E60001C46DDF828A04FF0000BE11704EB517190
:100E7000C910A4EBC10131B92046E11704EB51714F
:100E8000C1F3C70506E02046E11704EB5171C91014
:100E9000491CCDB23D4615E029463046FFF77DFEA0
:100EA000B1460BE059460BF1010B1AF80100012184
:100EB000FFF72FFE09F1010000F0FF09C145F1DB4A
:100EC000681CC5B2A542E7DBBDE8F09F08B501216B
:100ED000082000F015FD4FF44050ADF80000102040
:100EE0008DF8030003208DF8020069463D4800F0AC
:100EF0004BFA4FF440513B4800F0F3FA4FF448707E
:100F000000F09FFD0021AE20FFF703FE0021084600
:100F1000FFF7FFFD00211020FFF7FBFD002140201F
:100F2000FFF7F7FD0021B020FFF7F3FD002181203E
:100F3000FFF7EFFD0021FF20FFF7EBFD0021A120CF
:100F4000FFF7E7FD0021A620FFF7E3FD0021A82021
:100F5000FFF7DFFD00213F20FFF7DBFD0021C82068
:100F6000FFF7D7FD0021D320FFF7D3FD002108466E
:100F7000FFF7CFFD0021D520FFF7CBFD002180201A
:100F8000FFF7C7FD0021D820FFF7C3FD0021052092
:100F9000FFF7BFFD0021D920FFF7BBFD0021F120A5
:100FA000FFF7B7FD0021DA20FFF7B3FD0021122083
:100FB000FFF7AFFD0021DB20FFF7ABFD0021302064
:100FC000FFF7A7FD00218D20FFF7A3FD00211420CE
:100FD000FFF79FFD0021AF20FFF79BFD08BD00003C
:100FE00080000020000C01401FB50121042000F00A
:100FF00087FC0720ADF80C0048208DF80F00032077
:101000008DF80E0003A9214800F0BEF90121084621
:1010100000F076FC0021084600F0CCFA0121002007
:1010200000F0C8FA0221002000F0C4FA0720019065
:1010300000208DF8080008208DF8090001208DF8A7
:101040000A0001A800F0C0F806208DF80000022078
:101050008DF8010001208DF802008DF8030068462C
:1010600000F03BF807208DF8000002208DF8020008
:10107000684600F032F808208DF8000003208DF853
:101080000200684600F029F81FBD0000000801407A
:101090000948804709480047FEE7FEE7FEE7FEE70C
:1010A000FEE7FEE7FEE7FEE7FEE7FEE70448054948
:1010B000054A064B70470000F7060008ED000008DF
:1010C00078040020780A00207806002078060020A6
:1010D00031490143314A1160704770B50021002346
:1010E0000F22C47804B32D4C246804F4E064C4F5E2
:1010F000E064210AC1F10403CA40447804FA03F110
:101100008478144021430901254C0678A1550478C0
:1011100004F01F050124AC4005786D11AD0005F108
:10112000E025C5F8004109E0047804F01F0501241A
:10113000AC401C4D0678761145F8264070BD1A4A21
:101140000A400243154B1B1F1A60704739B1134AFE
:10115000121D12680243114B1B1D1A6006E00F4A54
:10116000121D126882430D4B1B1D1A607047042824
:1011700008D14FF0E021096941F004014FF0E0226D
:10118000116107E04FF0E021096921F004014FF0FF
:10119000E0221161704700000000FA050CED00E04C
:1011A00000E400E080E100E080FFFF1F00204449F0
:1011B0000860091D0860091D0860091D0860414894
:1011C0003F4914310860704700213D498279002A67
:1011D0003AD00A46126803689A430B461A600A1D01
:1011E000126803689A430B1D1A60027911440A6859
:1011F00003681A430A60324A0832126803689A4345
:101200002F4B08331A601A1D126803689A432C4B3F
:101210000C331A604279102A0ED11A1F1268036823
:101220001A43274B08331A601A1D126803681A43C1
:10123000234B0C331A600DE02149427911440A68AE
:1012400003681A430A6005E0027911440A680368DA
:101250009A430A6070470021016001710C214171BD
:101260000021817170471649103109680143144A01
:1012700010321160704701460020114A1432126882
:101280000A400AB1012000E0002070470C491431E7
:1012900008607047014600200022094B1B6803EAE2
:1012A0000102074B14331B680B4013B10AB1012034
:1012B00000E00020704702491431086070470000C8
:1012C00000040140FFFF0F0010B50446CC488442E3
:1012D00008D10121042000F02DFB0021042000F0A2
:1012E00029FB46E0C748844208D10121082000F0CC
:1012F00021FB0021082000F01DFB3AE0C248844297
:1013000008D10121102000F015FB0021102000F071
:1013100011FB2EE0BD48844208D10121202000F0BD
:1013200009FB0021202000F005FB22E0B8488442A0
:1013300008D10121402000F0FDFA0021402000F0FA
:10134000F9FA16E0B348844208D10121802000F068
:10135000F1FA0021802000F0EDFA0AE0AE48844264
:1013600007D10121801500F0E5FA0021A01500F059
:10137000E1FA10BD10B50121084600F0DBFA0021AA
:10138000012000F0D7FA10BD2DE9F04102460025FA
:101390000026002000230024002791F803C00CF051
:1013A0000F0591F803C00CF0100CBCF1000F03D036
:1013B00091F802C04CEA050591F800C0BCF1000F9D
:1013C00031D0146800202BE04FF0010C0CFA00F330
:1013D000B1F800C00CEA03069E4220D183004FF012
:1013E0000F0C0CFA03F7BC4305FA03FC4CEA0404A7
:1013F00091F803C0BCF1280F06D14FF0010C0CFA94
:1014000000FCC2F814C00AE091F803C0BCF1480F18
:1014100005D14FF0010C0CFA00FCC2F810C0401CC2
:101420000828D1D31460B1F800C0BCF1FF0F34DD3F
:10143000546800202EE000F1080C4FF0010808FA73
:101440000CF3B1F800C00CEA03069E4221D18300E0
:101450004FF00F0C0CFA03F7BC4305FA03FC4CEAFF
:10146000040491F803C0BCF1280F05D100F1080C69
:1014700008FA0CF8C2F8148091F803C0BCF1480FC8
:1014800007D100F1080C4FF0010808FA0CF8C2F877
:101490001080401C0828CED35460BDE8F0814FF680
:1014A000FF710180022181700421C17070470246E2
:1014B000002093680B400BB1012000E00020704732
:1014C0000146886880B2704702460020D3680B400E
:1014D0000BB1012000E0002070470146C86880B2CF
:1014E000704701617047416170470AB1016100E0D6
:1014F00041617047C16070474FF480320A43826196
:101500008161826182698269704702460020434B93
:1015100018684FF68073184040EA021008433F4BAA
:10152000186070473E49C8617047F0B50A4600230D
:1015300000240021002500F00046B6F1004F02D142
:10154000364EF16901E0354E7168C0F3034583B250
:1015500000F44016B6F5401F08D121F070612F4EFF
:10156000766826F070662D4F7E6012E000F48016DB
:10157000B6F5801F06D1032606FA05F4A14341F013
:10158000706106E0460D360103FA06F6B14341F0FC
:10159000706122B1460D360103FA06F6314300F0C0
:1015A0000046B6F1004F02D11C4EF16101E01B4E26
:1015B0007160F0BD30B500228B071C0F0F2303FABA
:1015C00004F2164B08338C1053F824309343134C19
:1015D00008348D1044F8253023468C1053F82430FD
:1015E0008C07240F00FA04F423430C4C08348D10AC
:1015F00044F8253030BD0A49DC31086070470000EE
:1016000000080140000C014000100140001401409E
:1016100000180140001C0140002001400000014072
:1016200000002042DF48006840F00100DD4908600A
:1016300008464068DC490840DA49486008460068C6
:10164000DA490840D74908600846006820F480203D
:1016500008600846406820F4FE0048604FF41F0010
:1016600088607047CF49096821F48031CD4A116004
:101670001146096821F480211160B0F5803F03D044
:10168000B0F5802F0ED106E0C649096841F48031DB
:10169000C44A116007E0C349096841F4A021C14A66
:1016A000116000E000BF00BF704710B50146002286
:1016B000002300204A11012A02D1BA4C236806E017
:1016C000022A02D1B74C236A01E0B64C636A01F0EA
:1016D0001F02012494401C400CB1012000E00020B6
:1016E00010BD38B5002000900024002500BF312037
:1016F000FFF7DBFF05460098401C00900098B0F50E
:10170000A06F01D0002DF2D03120FFF7CEFF08B13D
:10171000012400E00024204638BD01460020A14AF3
:10172000106820F0F80040EAC10010607047A0493E
:1017300008607047024600209A4B586820F47C10DD
:1017400042EA01031843974B58607047984908666E
:10175000704701460020934A506820F00300084378
:10176000506070478F48406800F00C007047014699
:1017700000208C4A506820F0F00008435060704709
:1017800001460020874A506820F4E060084350601A
:10179000704701460020834A506820F4605040EAB8
:1017A000C1005060704729B17E4A527A02437D4B96
:1017B0005A7204E07B4A527A82437A4B5A727047DB
:1017C0007B49D8310860704701460020754A50684F
:1017D00020F440400843506070470021714A203295
:1017E0001170704A82F82010012802D004280AD112
:1017F00004E001216B4A2032117005E00521694A9D
:101800002032117000E000BF00BF704769490860D6
:1018100070476449096A0143624A11627047654929
:1018200044390860704730B50021002200240023AD
:101830005C4D6D6805F00C0121B1042905D0082923
:1018400023D105E05C4D056022E05B4D05601FE0A3
:10185000544D6D6805F47012524D6D6805F4803476
:10186000022505EB92421CB9544D554305600BE02F
:101870004C4D6D6805F400351DB1504D5543056064
:1018800002E04D4D5543056002E04B4D056000BF41
:1018900000BF444D6D6805F0F0010909484D6B5CCF
:1018A0000568DD4045603F4D6D6805F4E061090A5B
:1018B000434D6B5C4568DD4085603A4D6D6805F4CD
:1018C0006051C90A3E4D6B5C4568DD40C560354DD1
:1018D0006D6805F44041890B3A4D6B5CC568B5FBFA
:1018E000F3F5056130BD29B12E4A526902432D4BF3
:1018F0005A6104E02B4A526982432A4B5A6170476D
:1019000029B1284A92690243264B9A6104E0254A8C
:1019100092698243234B9A61704729B1214AD26967
:101920000243204BDA6104E01E4AD26982431D4B18
:10193000DA61704729B11B4AD2680243194BDA6059
:1019400004E0184AD2688243164BDA60704729B126
:10195000144A12690243134B1A6104E0114A1269D6
:101960008243104B1A617047124940390860704732
:101970000F49C86470470B49C87170470948406AED
:1019800040F0807007494862704701460020054AD0
:1019900092680A400AB1012000E000207047014926
:1019A00088727047001002400000FFF8FFFFF6FE4B
:1019B000000042428004424200127A0000093D00C9
:1019C000000400201004002010B56FF00400FFF7A1
:1019D000CEFB2E4800682E49B0FBF1F02D4908706F
:1019E0000846007800EB4001C1EBC0104FF6FF71D4
:1019F00001EAC0002849088010BD0146254A127836
:101A00004A434FF0E0235A6100229A611A46126954
:101A100042F001021A6100BF4FF0E022106900F0AD
:101A200001021AB100F48032002AF5D04FF0E02212
:101A3000126922F001024FF0E0231A6100229A613C
:101A400070470146144A12884A434FF0E0235A6116
:101A500000229A611A46126942F001021A6100BF1F
:101A60004FF0E022106900F001021AB100F4803258
:101A7000002AF5D04FF0E022126922F001024FF067
:101A8000E0231A6100229A61704700006C00002078
:101A900000127A001404002016040020014600BF42
:101AA000704700BF324A128802F04002002AF9D083
:101AB000C2B22F4B1B1D1A8070472DE9F05F0546FF
:101AC0000E46300100F0D4FA81462A4905FB01F0A8
:101AD00000F0CEFA8246494600F0E8F9074638465B
:101AE00000F0A6FA84B2204600F0C2FA83463946D6
:101AF00000F09EFB82464FF0834100F0CDFA814614
:101B000000F096FA80464FF6FF7000EA041404EBEA
:101B1000080084B21848806940F0040016498861C2
:101B20000846806940F4804088611448006820F4C9
:101B30007F60124908600846006840F40B60086046
:101B40000D48C06840F480400B49C8600846C06832
:101B500020F48040C860064808300480001D0088DA
:101B600042F20C01084302490C310880BDE8F09FA5
:101B70000038014040420F000010024004080140BC
:101B8000704700000FB41CB5074B06AA7B4469469A
:101B90000090059800F0DDF80020694600F0ECF8B0
:101BA0001CBC5DF814FB0000E90100002DE9F041C8
:101BB0000E460446002020622046E168884730B384
:101BC000252805D0D4E901219047206A401CF2E77E
:101BD000E168204600278847050018D0A5F141009C
:101BE000192802D820354FF400673246294620468E
:101BF0002760FEF7D5FA40B1012804D0F61D26F083
:101C000007060836D8E7361DD6E72846DAE7206A01
:101C1000BDE8F0812DE9F0410646002410687529E1
:101C2000314616A510D0AFF30080002802DA4042FA
:101C300013A507E031688A0701D512A502E049071C
:101C400004D511A5012401E0AFF3008000210A2290
:101C500006F1240709E0B0FBF2FCB0FBF2F302FB53
:101C60001C00303078541846491C0028F3D1234614
:101C70002A463046BDE8F04100F00CB800000000F4
:101C80002D0000002B00000020000000704770476E
:101C9000704770472DE9F0470D4699469246044635
:101CA00000F124080168880604D5E06921F01001DC
:101CB000216000E00120A84201DD471B00E0002771
:101CC000A1697A1902EB0900081AA0612078C00600
:101CD00002D42046AFF30080002608E0D4E90121B9
:101CE0001AF806009047206A401C761C20624E4578
:101CF000F4DB2078C0060AD52046AFF3008006E06A
:101D0000D4E9012130209047206A401C2062381E0F
:101D1000A7F10107F4DC07E0D4E9012118F8050078
:101D20009047206A401C2062281EA5F10105F3DCC3
:101D30002046AFF300802078000602D50220BDE8DF
:101D4000F0870120FBE7000001694A1C0261087866
:101D5000704700B58FB0CDE90131002105910549EB
:101D60007944CDE9031011466846FFF71FFF0FB015
:101D700000BD0000E5FFFFFF0A6802F8010B0A60E2
:101D80007047754600F02CF8AE460500694653468C
:101D900020F00700854618B020B5FFF787F9BDE8A9
:101DA00020404FF000064FF000074FF000084FF0C2
:101DB000000B21F00701AC46ACE8C009ACE8C00953
:101DC000ACE8C009ACE8C0098D46704710B50446C0
:101DD000AFF300802046BDE81040FEF7F3B90000E5
:101DE000004870471804002090EA010F48BF81F0B6
:101DF000004100F12E82421A3CBF801A89184FEA36
:101E0000D0524FF07F4C1CEA410FA2EBD15318BFC8
:101E10009CEA026F00F03B804FF0004C4CEA00203F
:101E20004CEA012121FA03FC10EB0C0C1ED202F14A
:101E3000FF325FEA1C2040EBC25038BF70471CF0F5
:101E40007F0F4FEA400C18BFBCF17F4F38BF70477F
:101E5000C3F12003994008BF20F00100BCF17F4F7F
:101E600038BF7047A0F1C04000F0DDB94FEA3C0038
:101E7000000A40EBC25028BF1CF0FF0F4FEA400C95
:101E8000E6D018BFBCF17F4F38BF7047EAE79CEA45
:101E9000026F05D010EA5C0F08BF00F000407047E9
:101EA00010B500F07AF900BF64FBBE3E4FF47F0C22
:101EB0001CEAD0121EBF1CEAD11392EA0C0F93EA5F
:101EC0000C0F00F0858090EA010F48BF42F4807249
:101ED00040F4000C41F400002CF07F4120F07F40E2
:101EE00000B58142A2EB03020FF2081CACEB504E8E
:101EF000C0F100009EF800E04FEA4E0E00FB0EFC21
:101F000038BF49004FEA2C1C02F5FA020CFB0EF315
:101F10004FEACE1E4FEA112C4FEAC1210EEB635E51
:101F200042EB22420EFB0CFC4FEA1C5300FB031158
:101F30004FEA112C4FEA01310EFB0CFC4FEADC4C4E
:101F400000FB0C11C14228BF09184CEB03335DF8AC
:101F500004EB10EB410143EBC250B2F57C0F38BFEC
:101F6000704729D512F0F00F1CBF00F1C04000F0FF
:101F700000407047008182838485868788898B8CA6
:101F80008D8E8F919293959697999A9C9D9FA0A2E2
:101F9000A3A5A7A8AAACAEB0B2B3B5B7B9BCBEC032
:101FA000C2C5C7C9CCCED1D4D7D9DCDFE2E6E9ECD3
:101FB000F0F3F7FAFE0000004FEA400C0CF1807CD1
:101FC000BCF17E4F28BF7047B0F1C04000F02BB984
:101FD00090EA010F0CEAD11348BF42F480726245C7
:101FE00038BF634507D213F47F0F16D080EA010093
:101FF00000F00040704710B500F0CFF8097EFC3EBD
:1020000000F005B880EA010000F00040704780EA67
:10201000010000F0004000F006B912F47F0F04BF89
:102020000248704780EA010000F0FDB80000C07F60
:10203000C10DD1F19E0206DB4FEA002343F00043BD
:1020400023FA02F07047004207D54FEA4001B1F190
:10205000FE4F02D24FF00000704710B500F09DF81F
:1020600049922480002070476FEA200070470000EA
:10207000B0FA80F310FA03F2C3F19D030AD0D90538
:1020800001EB1220530638BF704700F1010008BF72
:1020900020F00100704700004FF47F0C1CEAD012C2
:1020A0001EBF1CEAD11392EA0C0F93EA0C0F00F04A
:1020B000478090EA010F48BF42F480724FF0004C15
:1020C0004CEA00204CEA012102EB0302A0FB0113C1
:1020D000A2F50002002918BF43F001035B0028BFEE
:1020E0004FEA330342EB22425FEA132C4CEBC2501F
:1020F0002EBFBCEB436FB2F57C0F70474FEA036C09
:10210000BCF1004F08BF20F00100B2F57C0F38BFD2
:1021100070470BD582F0FF0212F5803FC8BF7047B1
:1021200000F1C040D8BF00F00040704700F5000C3F
:102130005FEA4C0C48BF7047B0F1C04000F073B884
:1021400090EA010F0CEAD11348BF42F48072624555
:1021500038BF634504D280EA010000F000407047B8
:1021600010B500F01AF800BF8900013E00F007B872
:1021700000F009B85FEA410C5FEA1C6C08D080EA05
:10218000010000F050B85FEA400C5FEA1C6CF6D129
:102190004FF00040A0F5800070470EF1020E2EF0C7
:1021A000030E5EF8044B244204D44FEA4102B2F11C
:1021B0007F4F11D84FEA4003B3F17F4F0CD80ED1B7
:1021C0004FEAD07CB2F17F4F0CEB4C0C0CF1020CBF
:1021D00008BF4CEBD17C04E04FF0080C01E04FEA63
:1021E000D17C0CEB4C0324FA03F404F00704B4F1A3
:1021F000040C06D20EEB840CBDE810404CF0010C30
:102200006047DFE80CF0070802024FF00040A0F53D
:10221000800010BD0846420018BFD2F1807288BF0E
:1022200000F0004010BDFF2141EAD050C0057047CA
:1022300080F0004090EA010F7FF5DDAD81F00041B4
:1022400000F007B890EA010F48BF81F000413FF568
:10225000D2AD421A04D882F00042A0EB0200114431
:102260004FEAD0524FF07F4C1CEA410FA2EBD15302
:1022700018BF9CEA026F4AD04FF0004C4CEA002095
:102280004CEA012121FA03FCB0EB0C0C0FD412F044
:10229000FE0F36D05FEA4C001DD5001240EBC25055
:1022A00038BF70471CF03F0F18BF70470BE0A2F11A
:1022B00001025FEA1C2040EBC25038BF70471CF09F
:1022C0007F0F18BF7047C3F12003994014BF401E11
:1022D00020F00100704780084FEA122308BF7047C2
:1022E000B0FA80FCA2EB0C02CCF1280C60FA0CF0E6
:1022F00093EA122F04BF00EBC25070474FEAC3703D
:102300007047130A5FEADC1008BF7047F6E79CEAE3
:10231000026F04D010EA5C0F08BF0020704710B5B0
:10232000FFF73BFF40DFF63E81F0004070470000C2
:10233000000000000000002F000000000700070060
:1023400000147F147F1400242A7F2A12006264087C
:1023500013230036495522500000050300000000F9
:102360001C224100000041221C000014083E0814F9
:102370000008083E0808000000A0600000080808E7
:102380000808000060600000002010080402003E01
:102390005149453E0000427F40000042615149469C
:1023A000002141454B31001814127F10002745458C
:1023B0004539003C4A49493000017109050300369E
:1023C0004949493600064949291E000036360000B1
:1023D00000005636000000081422410000141414B6
:1023E00014140000412214080002015109060032B1
:1023F0004959513E007C1211127C007F49494936EF
:10240000003E41414122007F4141221C007F494959
:102410004941007F09090901003E4149497A007F8D
:102420000808087F0000417F4100002040413F0133
:10243000007F08142241007F40404040007F020C92
:10244000027F007F0408107F003E4141413E007F33
:1024500009090906003E4151215E007F09192946FC
:102460000046494949310001017F0101003F4040D8
:10247000403F001F2040201F003F4038403F006386
:1024800014081463000708700807006151494543A8
:1024900000007F41410000552A552A550000414166
:1024A0007F00000402010204004040404040000060
:1024B00001020400002054545478007F48444438FA
:1024C00000384444442000384444487F0038545481
:1024D000541800087E0901020018A4A4A47C007FFF
:1024E000080404780000447D4000004080847D00A2
:1024F000007F102844000000417F4000007C041849
:102500000478007C0804047800384444443800FC13
:10251000242424180018242418FC007C080404082F
:1025200000485454542000043F444020003C4040A4
:10253000207C001C2040201C003C4030403C0044DB
:1025400028102844001CA0A0A07C004464544C44E3
:102550001414141414140000000000000000000003
:10256000000000000000000000F800000000000073
:1025700000333000000000100C06100C06000000B4
:1025800000000000000040C07840C0784000043FD8
:1025900004043F040400007088FC083000000018A8
:1025A00020FF211E0000F008F000E01800000021CC
:1025B0001C031E211E0000F00888700000001E2170
:1025C00023241927211010160E000000000000001F
:1025D000000000000000000000E0180402000000FD
:1025E00000071820400000020418E000000000402E
:1025F000201807000000404080F0804040000202A8
:10260000010F01020200000000F0000000000101C3
:10261000011F01010100000000000000000080B067
:102620007000000000000000000000000000000139
:102630000101010101010000000000000000003064
:1026400030000000000000000000806018040060FE
:1026500018060100000000E010080810E000000F5C
:10266000102020100F00001010F8000000000020C3
:10267000203F20200000007008080888700000300B
:1026800028242221300000300888884830000018B3
:10269000202020110E000000C02010F800000007CC
:1026A0000424243F240000F8088888080800001942
:1026B000212020110E0000E0108888180000000F73
:1026C000112020110E0000380808C838080000004A
:1026D000003F000000000070880808887000001C9F
:1026E000222121221C0000E010080810E000000058
:1026F000312222110F00000000C0C00000000000C5
:1027000000303000000000000080000000000000E9
:1027100080600000000000008040201008000001E0
:1027200002040810200040404040404040000404A3
:10273000040404040400000810204080000000206D
:10274000100804020100007048080808F0000000AA
:10275000003036010000C030C828E810E00007183B
:10276000272423140B000000C038E0000000203CA8
:1027700023020227382008F8888888700000203F4C
:10278000202020110E00C030080808083800071863
:1027900020202010080008F808080810E000203F5A
:1027A000202020100F0008F88888E8081000203F3B
:1027B00020202320180008F88888E8081000203F0F
:1027C000200003000000C030080808380000071887
:1027D0002020221E020008F808000008F808203F08
:1027E000210101213F20000808F80808000000200E
:1027F000203F2020000000000808F8080800C080E2
:1028000080807F00000008F888C028180800203F5A
:1028100020012638200008F8080000000000203FB2
:1028200020202020300008F8F800F8F80800203FA9
:10283000003F003F200008F830C00008F808203FA3
:10284000200007183F00E01008080810E0000F10F3
:10285000202020100F0008F808080808F000203F8A
:10286000210101010000E01008080810E0000F1825
:10287000242438504F0008F8888888887000203F4A
:102880002000030C30200070880808083800003849
:10289000202121221C00180808F808081800000050
:1028A000203F2000000008F808000008F808001F7A
:1028B000202020201F000878880000C83808000069
:1028C00007380E010000F80800F80008F800033C83
:1028D0000700073C0300081868808068180820304B
:1028E0002C03032C30200838C800C838080000002A
:1028F000203F2000000010080808C83808002038D1
:10290000262120201800000000FE02020200000024
:10291000007F40404000000C30C00000000000007C
:1029200000010638C00000020202FE000000004064
:1029300040407F000000000004020202040000008A
:102940000000000000000000000000000000808087
:10295000808080808080000202040000000000006F
:10296000000000000000000080808080000000194E
:10297000242222223F2008F8008080000000003F2F
:10298000112020110E000000008080800000000E49
:10299000112020201100000000808088F800000E27
:1029A000112020103F200000808080800000001F48
:1029B000222222221300008080F0888888180020BC
:1029C000203F202000000000808080808000006B7D
:1029D00094949493600008F8008080800000203F69
:1029E000210000203F200080989800000000002077
:1029F000203F20200000000000809898000000C0C8
:102A00008080807F000008F8000080808000203FE8
:102A100024022D302000000808F8000000000020EB
:102A2000203F202000008080808080808000203F28
:102A300020003F20003F8080008080800000203FF9
:102A4000210000203F200000808080800000001FC7
:102A5000202020201F00808000808000000080FF58
:102A6000A12020110E000000008080808000000E58
:102A7000112020A0FF8080808000808080002020A6
:102A80003F21200001000000808080808000003312
:102A9000242424241900008080E0808000000000AD
:102AA000001F202000008080000000808000001FA8
:102AB000202020103F208080800000808080000146
:102AC0000E300806010080800080008080800F307A
:102AD0000C030C300F0000808000808080000020FC
:102AE000312E0E3120008080800000808080808127
:102AF0008E70180601000080808080808000002198
:102B0000302C2221300000000000807C02020000F6
:102B10000000003F404000000000FF0000000000F7
:102B20000000FF0000000002027C80000000004066
:102B3000403F000000000006010102020404000002
:102B40000000000000000000682B000800000020CA
:102B50001804000028010008382D0008180400207F
:102B6000600600008401000881851E46141E57047B
:102B70000404150E04600AE0F83E06073EF8E08003
:102B8000400B1F3F7D78F0E060703F1F180E808083
:102B900098D8F0F0FEFEF0E0D8988022A00F010156
:102BA000191D0F073F3F0F071F1901011AFF0151A0
:102BB0004BA24A5631200901020304060708091BEB
:102BC000F010012AFF050215F01A0F8F2B04FF05E4
:102BD00002130F18094040405F55555575041A5FA0
:102BE0000C091121080C11200F09498979090909DB
:102BF0000F201F112FFE02424ACA4A030413420249
:102C0000FE480DFF40504C4340404F50505C40C682
:102C1000F11BF888012AFF050215F81B1F08012A7D
:102C20007F200B109F80E23B808201000916E2A208
:102C3000928A86828080041840807F172424A4FE14
:102C4000A3221B22CCAA011415080601FF2B0104A4
:102C5000010511FF0202025808101010FF10900821
:102C6000C3021108080F100444827F018080404392
:102C70002C10284681A018094040484848C8784F81
:102C80000605154848404000091503121222225239
:102C90008A063C106080BA19040B11C030FB1E403C
:102CA0004043407F061C7F424106094FC02941082E
:102CB0000B1110D030FF30D0121C10101F3D080433
:102CC00002019E0D1101020408211116FE2222228A
:102CD000FE0712FE828292A29E100880601F0242AE
:102CE000827F0F11FF402F102C438011000B149096
:102CF000884C57A42454548C841808010180422223
:102D00001A07441D423E01018AF9E1000D14E42432
:102D10002CB4252624B42C24E404180AFF02011E36
:102D20001212121E418601162D01020304044009ED
:082D3000060708090204060869
:04000005080000ED02
:00000001FF
