:020000040800F2
:10000000580700208901000843140008FB1200086B
:10001000411400088F020008B1160008000000001B
:10002000000000000000000000000000471400086D
:10003000C50300080000000045140008491400082A
:10004000A3010008A3010008A3010008A301000800
:10005000A3010008A3010008A3010008A3010008F0
:10006000A3010008A3010008A3010008A3010008E0
:10007000A3010008A3010008A3010008A3010008D0
:10008000A3010008A3010008A3010008A3010008C0
:10009000A3010008A3010008A3010008A3010008B0
:1000A000A3010008A3010008A3010008A3010008A0
:1000B000AD140008A301000800000000A30100081F
:1000C000A30100080000000000000000A3010008D8
:1000D00000000000A3010008A301000800000000C8
:1000E000A3010008A3010008A301000800F002F822
:1000F00000F03AF80AA090E8000C82448344AAF188
:100100000107DA4501D100F02FF8AFF2090EBAE885
:100110000F0013F0010F18BFFB1A43F0010318473B
:100120006816000088160000103A24BF78C878C10D
:10013000FAD8520724BF30C830C144BF04680C60ED
:10014000704700000023002400250026103A28BF35
:1001500078C1FBD8520728BF30C148BF0B60704739
:100160001FB51FBD10B510BD00F058F81146FFF7C0
:10017000F7FF01F0C3FA00F076F803B4FFF7F2FFDF
:1001800003BC00F07DF8000009488047094800479B
:10019000FEE7FEE7FEE7FEE7FEE7FEE7FEE7FEE737
:1001A000FEE7FEE704480549054A064B7047000094
:1001B000AB140008ED00000858010020580700208B
:1001C00058030020580300204FF0000200B51346EA
:1001D00094469646203922BFA0E80C50A0E80C5067
:1001E000B1F12001BFF4F7AF090728BFA0E80C5018
:1001F00048BF0CC05DF804EB890028BF40F8042B11
:1002000008BF704748BF20F8022B11F0804F18BF7D
:1002100000F8012B7047704770477047754600F033
:100220002BF8AE4605006946534620F00700854688
:1002300018B020B5FFF7B6FFBDE820404FF000062C
:100240004FF000074FF000084FF0000B21F00701BE
:10025000AC46ACE8C009ACE8C009ACE8C009ACE801
:10026000C0098D46704710B50446AFF300802046A4
:10027000BDE81040FFF781BF00487047F400002040
:1002800001491820ABBEFEE7260002007047FEE7DA
:100290001FB510200090002001900290694602488E
:1002A00000F0A6F81FBD0000001001401FB510208F
:1002B000009001200190032003906946014800F05E
:1002C00097F81FBD001001402DE9F0410025154EA3
:1002D0002C4601271021304600F06AF90028F9D099
:1002E000282001F0F7F91021304600F061F90128CB
:1002F0000BD0C4F1070007FA00F08543641CE4B298
:10030000082CE7D32846BDE8F0811021304600F0E4
:100310004FF90128F9D0C4F1070007FA00F0C0B284
:100320000543EBE70010014070B50446FFF7BEFF40
:10033000234D00221021284600F03FF9122000F042
:1003400045F801221021284600F037F91E2001F05F
:10035000C1F9FFF79DFF1021284600F029F968BB7D
:100360001021284600F024F90028F9D01021284651
:1003700000F01EF90128F9D0FFF7A6FF2070FFF763
:10038000A3FF6070FFF7A0FFA070FFF79DFFE07074
:10039000FFF79AFF2071FFF789FF012210212846FD
:1003A00000F00BF920786178E2780844A1781144D4
:1003B00008442179884201D1002070BD012070BD20
:1003C00000100140704772B6FEE7000070B50446A9
:1003D00000F0F8F80546601C02D004480078044498
:1003E00000F0F0F8401BA042FAD370BD00000020DE
:1003F0002DE9F84FDFF89C910024A9F1040B234666
:100400000F2709F1040AABF1040EBBE00125A5405A
:100410002A40AA4276D1DFF880C14E68A6EB0C08CC
:1004200066452BD00DDC032E34D005DC36B3012E0F
:1004300019D0022E2FD11BE0112E16D0122E2AD148
:1004400019E0B8F5881F19D006DCB8F5803F15D043
:10045000B8F5801F1FD111E0B8F5001F0ED0B8F518
:10046000041F18D10AE0CB6815E0CB681B1D12E011
:10047000CB6808330FE0CB680C330CE08B682BB1F2
:10048000012B4FF0080303D0456104E0042302E090
:10049000056100E00023FF2A01D8064601E000F1D3
:1004A00004064FEA840501D9A5F12005D6F800809D
:1004B00007FA05FC28EA0C0803FA05F548EA0508DE
:1004C000C6F800804D68ED005BD5344DAE6946F04E
:1004D0000106AE61AD6924F0030605F00105009543
:1004E0002F4D06EB050CDCF80850A607360F07FA6F
:1004F00006F825EA0805DFF8AC80404503D14FF047
:10050000000810E03DE0DFF8A080404502D14FF048
:10051000010808E0DFF89480404502D14FF002085E
:1005200001E04FF0030808FA06F848EA0508CCF89D
:1005300008804D68D9F80060ED024D4601D516439C
:1005400000E096432E604D68DAF80060AD02554633
:1005500001D5164300E096432E604D68DBF800603D
:10056000AD035D4601D5164300E096432E604D680D
:10057000DEF80060ED03754601D5164300E09643B2
:100580002E60641C0A6832FA04F57FF43FAFBDE8C0
:10059000F88F000008040140000011100010024014
:1005A0000000014000080140000C01400010014023
:1005B0008068084000D0012070470AB1016170478F
:1005C0000904FBE701488068704700000000002034
:1005D00070B5040025D094F83D00002520B984F8BA
:1005E0003C50204600F0B8F8242084F83D002068F4
:1005F000016821F0010101602068016841F40041B7
:1006000001602068016821F40041016000F0FCF9FC
:100610004D4A6168914201D84C4900E04C498842FA
:1006200001D2012070BD4B492368B0FBF1F15E6837
:1006300026F03F060E435E606368934206D94FF48E
:10064000967359434FF47A73B1FBF3F12368491C55
:100650001E6A26F03F06314319626168914210D844
:100660004900401EB0FBF1F2521CC2F30B02042AF7
:1006700001D2042022E0B0FBF1F0401CC0F30B00DB
:100680001CE0A268F2B301EBC10303EB0116431EA9
:10069000B3FBF6F35B1C43F480431B0549D092B3D4
:1006A00001EBC10202EB0111401EB0FBF1F0401C56
:1006B000C0F30B0040F4804040F400402168CA6958
:1006C0004CF6FF739A431043C861D4E90710014305
:1006D0002068026822F0C00211430160D4E90301DE
:1006E00001432068826848F2FF339A4311438160D6
:1006F000D4E9050108432168CA6822F0FF021043CB
:10070000C86001E00EE016E02068016841F00101D8
:1007100001602564202084F83D00256384F83E5064
:10072000002070BD01EB4106431EB3FBF6F35B1CDA
:10073000B3E70120C2E701EB4101401EB0FBF1F03D
:10074000401CC0F30B00B7E7A086010080841E00A8
:1007500000093D0040420F0010B586B00021009115
:1007600001910291039100680E49884218D10E4C04
:10077000A06940F00800A061A069694600F0080087
:100780000490C0200090122001900848FFF730FE2E
:10079000E06940F40010E061E06900F400100490AA
:1007A00006B010BD0054004000100240000C014093
:1007B000024881680278114481607047000000207F
:1007C000074810B5016841F010010160032000F0F6
:1007D00073F80F2000F006F800F024F8002010BD98
:1007E0000020024070B50D4D04464FF47A71287810
:1007F000B1FBF0F00A490968B1FBF0F000F0DAFA59
:1008000048B9102C07D200222146501E00F034F8BF
:1008100000206C6070BD012070BD00000000002051
:100820000C0000200B4808B5816941F0010181618D
:10083000816901F001010091C16941F08051C161FC
:10084000C06900F0805000900348416821F0E061E9
:10085000416008BD0010024000000140002809DB93
:1008600000F01F02012191404009800000F1E020CA
:10087000C0F8001170470000F0B40E4B1B680C4626
:10088000C3F30223C3F10705042D00D90425191D64
:10089000072901D2002300E0DB1E012606FA05F13C
:1008A000491E214099409E40761E16403143F0BCBF
:1008B00000F0FFBE0CED00E0064900F007020868FA
:1008C0004FF6FF03184040EA0220034A1043086035
:1008D000704700000CED00E00000FA052DE9F0473C
:1008E0000F46050061D0434E306800F00700B84263
:1008F00009D2306820F0070038433060306800F0DB
:100900000700B84251D128683B4C810712D54007F7
:1009100003D5606840F4E06060602878000703D584
:10092000606840F4605060606068A96820F0F00082
:10093000084360602878C00728D06868012810D074
:100940002168022810D0890700292EDA616821F079
:10095000030101436160FFF735FE804641F28839AB
:100960000DE021688903EFE78901EDE7FFF72AFE33
:10097000A0EB0801494502D90320BDE8F087606873
:10098000696800F00C00B0EB810FEFD1306800F027
:100990000700B8420BD9306820F0070038433060B8
:1009A000306800F00700B84201D00120E5E7287860
:1009B000400705D56068E96820F4E060084360609E
:1009C0002878000706D56068296920F4605040EA5D
:1009D000C100606000F038F86168084AC1F3031193
:1009E000515CC8400649086006480068FFF7FAFEF7
:1009F0000020C2E700200240001002406E170008ED
:100A00000C000020040000200448054900684968E3
:100A1000044AC1F30221515CC84070470C00002019
:100A2000001002407E170008044805490068496824
:100A3000044AC1F3C221515CC84070470C00002039
:100A4000001002407E1700080E4A51680E4801F05F
:100A50000C03042B11D0082B0FD10C48C1F3834396
:100A6000C903C05C0AD55168084AC1F34041921ECF
:100A7000515C054A5043B0FBF1F0704704494843CC
:100A8000704700000010024000127A005E17000854
:100A900000093D002DE9F84F040070D02078C04DCA
:100AA000C00749D06868C0F38100012807D0686892
:100AB000C0F38100022809D16868C00306D5286800
:100AC000800339D560680028E7D035E06068B0F56C
:100AD000803F0BD010B1B0F5A02F11D0286820F4C2
:100AE00080302860286820F4802002E0286840F4E4
:100AF00080302860606890B1FFF764FD06460AE028
:100B0000286840F480202860F0E700BFFFF75AFD16
:100B1000801B642873D828688003F7D50CE0FFF7A2
:100B200051FD064605E000BFFFF74CFD801B642821
:100B3000F0D828688003F7D420789A4E80074FF0C9
:100B400001094FF0000839D5686810F00C0F07D084
:100B50006868C0F38100022809D16868C00306D420
:100B60002868800714D52069012808D110E0206981
:100B7000B0B1C6F80090FFF725FD074605E00AE191
:100B8000FFF720FDC01B0228C4D828688007F7D5CE
:100B90002868616920F0F80040EAC10028600DE093
:100BA000C6F80080FFF70EFD074604E0FFF70AFDD8
:100BB000C01B022823D828688007F7D420780007B4
:100BC0002CD57948A169D9B1C0F80090FFF7FAFC9B
:100BD000074604E0FFF7F6FCC01B02280FD8686A3E
:100BE0008007F7D571484FF4FA510068B0FBF1F077
:100BF000009000BF0098411E0091FAD20EE080E004
:100C0000C0F80080FFF7DEFC074604E0FFF7DAFCDF
:100C1000C01B022875D8686A8007F7D4207840077F
:100C200060D5E8690027C00008D4E86940F080502A
:100C3000E861E869012700F0805000905C48016895
:100C4000C90513D40168834641F480710160FFF740
:100C5000B9FC824606E000BFFFF7B4FCA0EB0A0037
:100C600064284ED8DBF80000C005F5D5E0680128FF
:100C70000AD008B1052813D0286A20F001002862A4
:100C8000286A20F0040002E0286A40F0010028628F
:100C9000E06841F2883B98B1FFF794FC82460BE094
:100CA000286A40F004002862EEE700BFFFF78AFCE4
:100CB000A0EB0A0159455AD8286A8007F6D50CE0FE
:100CC000FFF780FC824605E0FFF77CFCA0EB0A0101
:100CD00059454CD8286A8007F6D41FB1E86920F03E
:100CE0008050E861E06988B36968C1F38101022935
:100CF00044D00228C6F8608004D0FFF763FC0446A5
:100D000038E034E0FFF75EFC074604E0FFF75AFCEA
:100D1000C01B02282BD828688001F7D4206AB0F5C0
:100D2000803F05D16868A16820F4003008436860FE
:100D3000D4E908010843696821F474110843686024
:100D4000C6F86090FFF73EFC044606E025E000BFD1
:100D5000FFF738FC001B022809D828688001F7D566
:100D60001BE000BFFFF72EFC001B022802D9032066
:100D7000BDE8F88F28688001F4D40EE00128F7D090
:100D80006868226A00F48031914204D1616A00F4FB
:100D90007010884201D00120EAE70020E8E7000057
:100DA0000010024000004242800442420C00002039
:100DB0000070004010B5401EB0F1807F01D30120CB
:100DC00010BD4FF0E02460610F21601700F071FC4E
:100DD0000020A06107202061002010BD70477047EF
:100DE00070B590F83C20012A23D0012480F83C40C3
:100DF000022280F83D2003685A689D6822F0700640
:100E00000A6832435A600C4B02689A4205D0B2F12C
:100E1000804F02D0094B9A4204D1496825F08003E3
:100E20001943916080F83D40002180F83C1008464D
:100E300070BD022070BD0000002C01400004004085
:100E400010B5040003D094F83D0010B107E0012074
:100E500010BD002084F83C00204600F01FF802205E
:100E600084F83D00211D206800F026FB012084F855
:100E7000460084F83E0084F83F0084F8400084F87F
:100E8000410084F8420084F8430084F8440084F868
:100E9000450084F83D00002010BD000008B5006842
:100EA000B0F1804F12D10A48C16941F00101C1611E
:100EB000C069002200F00100009011461C20FFF7DD
:100EC000DBFCBDE808401C20FFF7C8BC08BD0000E3
:100ED0000010024090F83D10012901D00120704718
:100EE000022180F83D1000680949884205D0B0F120
:100EF000804F02D00749884204D1816801F0070180
:100F0000062903D0016841F001010160002070470B
:100F1000002C01400004004001680A6A41F21113EC
:100F20001A4207D10A6A9B101A4203D10A6822F0BA
:100F300001020A60012180F83D100020704770B561
:100F4000044690F83C000025012817D0012684F8BB
:100F50003C60022084F83D002068826822F077021D
:100F600022F47F4282600868502838D00DDC2028A7
:100F70004FD005DC90B3102811D14AE0022070BD9B
:100F8000302846D040280AD13BE060282FD0702876
:100F90000DD0B0F5805F03D0B0F5005F12D0012511
:100FA00084F83D60002084F83C00284670BDCB6882
:100FB000D1E90121206800F0ADFA2068816841F094
:100FC000770109E0CB68D1E90121206800F0A2FA9D
:100FD0002068816841F480418160E1E719E0CA68D6
:100FE0004968206800F0A8FA5021206806E0CA6825
:100FF0004968206800F0B1FA6021206800F094FA96
:10100000CEE7CA684968206800F096FA4021206857
:10101000F4E7226801461046F0E7704770B50446D1
:10102000006801694FF00005C943890715D4C168FC
:10103000C943890711D4E91E016101202077206886
:1010400080698007204602D0FFF7E7FF04E000F048
:1010500098F8204600F096F8257720680169C94382
:10106000490717D4C168C943490713D46FF0040175
:101070000161022020772068806910F4407F2046BB
:1010800002D0FFF7CAFF04E000F07BF8204600F032
:1010900079F8257720680169C943090716D4C16822
:1010A000C943090712D46FF00801016104202077B9
:1010B0002068C0698007204602D0FFF7AEFF04E039
:1010C00000F05FF8204600F05DF8257720680169A0
:1010D000C943C90617D4C168C943C90613D46FF000
:1010E00010010161082020772068C06910F4407F5A
:1010F000204602D0FFF791FF04E000F042F82046BE
:1011000000F040F8257720680169C943C90708D174
:10111000C168C943C90704D1891E0161204600F096
:1011200032F820680169C943090609D4C168C94376
:10113000090605D46FF0800101612046FFF74EFEDD
:1011400020680169C943490609D4C168C9434906F1
:1011500005D46FF040010161204600F015F82068C9
:101160000169C94389060BD4C168C943890607D4FC
:101170006FF0200101612046BDE87040FFF72FBEEF
:1011800070BD704770477047704770B5040004D059
:1011900094F84100002510B106E0012070BD84F8EC
:1011A0004050204600F024F8242084F841002068B4
:1011B000C16821F40051C160204600F0E1F92068C7
:1011C000016921F4904101612068416921F02A01FF
:1011D00041612068C16841F40051C160656420200C
:1011E00084F8410084F842006563002070BD00006F
:1011F00030B585B0002400940194029403940068F3
:101200001449884224D11448816941F480418161A4
:10121000816901F480410491816941F00401816197
:1012200080690E4D00F0040004904FF400700090AF
:10123000022001900320039069462846FFF7D8F862
:101240002815CDE90004694628460294FFF7D0F836
:1012500005B030BD003801400010024000080140D8
:101260002DE9F843044690F841001F4616460D4606
:10127000202802D00220BDE8F8837DB176B100209D
:101280006064212084F84100FFF79CF9A684804621
:10129000E684A068B0F5805F02D003E00120EAE7B1
:1012A000206910B12E4600250EE000260CE08021BA
:1012B000204600F0C1F9A0B9AEB116F8010B2168C3
:1012C0004860E08C401EE084E08C43464FF0000212
:1012D00000970028EBD14FF04001204600F0ACF918
:1012E00030B10320C7E735F8020BC0F30800E6E78A
:1012F000202084F841000020BDE7FEE700B585B05E
:1013000000200190029003901448816941F020016F
:101310008161816901F020010491816941F010012E
:101320008161816901F010010491816941F004013A
:101330008161816901F004010491816941F0080132
:1013400081618069694600F00800049010200090D7
:101350000348FFF74DF805B000BD00000010024043
:10136000001001400D4810B50B4901600C49416067
:1013700000214FF480428160C0E903124161816124
:10138000C1610162FFF724F9002803D0BDE81040D5
:10139000FFF719B810BD00000054004010000020F5
:1013A000A086010010B586B0002416480094019470
:1013B0000294039404944FF0804105940160472106
:1013C000C0E901144FF6FF71C0E903148461FFF70F
:1013D00037FD08B1FEF7F7FF4FF4805000906946E3
:1013E0000848FFF7ACFD08B1FEF7EDFF049404A92F
:1013F00004480594FFF7F4FC002801D0FEF7E3FF52
:1014000006B010BD640000200C4810B50A49016008
:101410004FF416514160002181600C22C160C0E987
:1014200004128161C161FFF7B0FE002803D0BDE85E
:101430001040FEF7C8BF10BD00380140AC000020CE
:10144000FEE7FEE770477047FFF7B2B930B58FB0DF
:1014500028216846FEF7B8FE14210AA8FEF7B4FE5C
:1014600001210804CDE90010002402940225049112
:10147000CDE907504FF4E01009906846FFF70AFBEA
:1014800008B172B6FEE70F20CDE90A054FF480607F
:10149000CDE90C4002210AA80E94FFF71FFA00289C
:1014A00001D072B6FEE70FB030BD70470148FFF7BC
:1014B000B5BD00006400002070B50268134B144CE9
:1014C0004FF08046984203D0B04201D0A04203D1F1
:1014D00022F070054A682A43984203D0B04201D0F6
:1014E000A04203D122F44074CA6822434C6922F01E
:1014F0008002224302608A68C2620A68826298425D
:1015000001D1096901630121416170BD002C0140D5
:101510000004004010B5846842EA032224F47F44AA
:101520000A432243826010BD826822F070020A439F
:1015300042F007018160704710B5036A046A24F025
:1015400001040462846924F0F00444EA021423F0E4
:101550000A020A438461026210BD10B5036A046A7C
:1015600024F010040462846923F0A00324F470447E
:1015700044EA023243EA01118261016210BD0000B7
:1015800070B5044600680169E26821F440511143D6
:1015900001612169A0680843616908432168CA683C
:1015A00041F20C639A430243CA6020684169A26910
:1015B00021F44071114341611E492068884202D1E3
:1015C000FFF732FA01E0FFF71FFA00EBC00101EB71
:1015D0000012606864218000B2FBF0F3B3FBF1F30A
:1015E0006FF018067343B2FBF0F5B2FBF0F605EBB3
:1015F0008305322303EB0515B5FBF1F5B6FBF1F6D8
:1016000005F0F00505EB0615B2FBF0F6B2FBF0F0C5
:10161000B0FBF1F06FF01802504306EB800003EBD3
:101620000010B0FBF1F0216800F00F002844886042
:1016300070BD0000003801402DE9F0419846174682
:101640000E460446069D27E0681C25D02DB1FEF706
:10165000B9FFA0EB0800A8421ED920680C3050E862
:10166000001F21F4D07140E80012002AF5D1206853
:10167000143050E8001F21F0010140E80012002A58
:10168000F5D1202084F8410084F84200002084F83D
:1016900040000320BDE8F0812068006836EA0000C1
:1016A00004D00020B842CFD00020F3E70120F9E7B2
:1016B000FEE70907090E002804DB00F1E02080F8AE
:1016C0000014704700F00F0000F1E02080F8141DB6
:1016D0007047000070B5084C05460020216848623C
:1016E0002046FFF7F7FB2068416AA942FCD1BDE81C
:1016F00070400148FFF710BC640000200EB5FFF7F2
:101700005FF8FFF7A3FEFFF7F9FDFFF72BFEFFF7EA
:101710007BFEFFF747FE00204FF6FF74009014E0B9
:1017200001A8FEF701FE0028FAD09DF804008DF80C
:1017300000009DF805008DF801009DF806008DF869
:1017400002009DF807008DF8030023460422694635
:101750000148FFF785FDE3E7AC000020010202032A
:101760000405060708090A0B0C0D0E0F10100000E7
:101770000000000000000102030406070809000041
:101780000000010203040000A81700080000002068
:101790001000000028010008B81700081000002001
:1017A000480700004401000801000000100000008C
:0817B000000000000024F40019
:04000005080000ED02
:00000001FF
